:020000040020DA
:100000000000082065042000B5042000B94D200040
:10001000BF4D2000C54D2000CB4D2000000000004A
:10002000000000000000000000000000B5042000F7
:10003000B504200000000000B5042000B504200035
:10004000B5042000B5042000B5042000B50420004C
:10005000B5042000B5042000B5042000B50420003C
:10006000B5042000B5042000B5042000F91E2000CE
:10007000051F2000111F20001D1F2000291F200028
:10008000351F2000411F2000B504200095082000E6
:1000900089082000B504200099082000B50420003C
:1000A000B5042000B5042000B5042000B5042000EC
:1000B000B5042000B5042000B5042000B5042000DC
:1000C000B5042000B5042000B5042000ED1C20007C
:1000D000F91C2000B5042000B5042000B504200060
:1000E000B5042000B5042000B5042000B5042000AC
:1000F000B5042000B5042000B50420004D1F2000E9
:10010000B5042000B5042000B5042000051D200022
:10011000B5042000B5042000B5042000B50420007B
:10012000591F2000651F2000711F20007D1F200027
:10013000891F2000B5042000B5042000A908200074
:100140009D082000B5042000AD082000B504200063
:10015000951F2000A11F2000AD1F2000B504200026
:10016000B5042000B5042000B5042000B50420002B
:10017000B5042000B5042000B504200000000000F4
:10018000B5042000B5042000B5042000B50420000B
:10019000111D20001D1D2000291D2000B504200078
:1001A000B5042000B5042000B5042000B5042000EB
:1001B000B5042000B5042000B5042000B5042000DB
:1001C000B5042000B504200000000000B5042000A4
:1001D000B5042000B5042000B5042000B5042000BB
:1001E000BD082000B1082000B5042000C10820008F
:1001F000B5042000B50420000348044B834202D01C
:10020000034B03B11847704780040020800400208E
:10021000000000000548064B1B1AD90F01EBA30193
:10022000491002D0034B03B11847704780040020E7
:10023000800400200000000010B5064C237843B96C
:10024000FFF7DAFF044B13B10448AFF3008001233A
:10025000237010BD8004002000000000E4A52000F1
:1002600008B5044B1BB104490448AFF30080BDE856
:100270000840CFE70000000084040020E4A520002F
:10028000A3F5803A704700BF154B002B08BF114BF8
:100290009D46FFF7F5FF00218B460F461148124A95
:1002A000121A07F021F80C4B002B00D098470B4B8B
:1002B000002B00D098470020002104000D000B48BF
:1002C00005F014FF06F086FE2000290006F050F924
:1002D00006F0E2F800000800000000002965200098
:1002E000000008208004002080130020457B2000AF
:1002F0002D4B00211A6C42F0805230B51A64B9B00F
:100300001B6C0446012502A803F080530093009B58
:10031000264B1A6842F440421A601B6803F44043BB
:100320000193019BCDE9025102F080FA002C4FF0BD
:1003300002044FF0040114BF4FF4A0234FF48033A4
:1003400007A8079508934FF480031194CDE90D4356
:10035000D823CDE90F130923CDE9123402F074F844
:1003600010B1002039B030BD02F036F80028F8D1C5
:100370000F234FF4A0520490072102A8CDE90234C4
:100380004FF48053CDE9052302F050FA0028E8D15C
:100390004FF40013339014A8149302F073FBB0FAD7
:1003A00080F04009DEE700BF0038024000700040E6
:1003B000244B1A6C42F0805270B51A64B8B01B6CB2
:1003C0000025012602A803F0805329460224019348
:1003D000019BCDE9026502F029FA1023082107A844
:1003E0000B93D82307940A9608951194CDE90F131F
:1003F0000923CDE90D45CDE9123402F025F810B1FD
:10040000002038B070BD01F0E7FF0028F8D10F23BD
:100410004FF4A0520490072102A8CDE902344FF412
:100420008053CDE9052302F001FA0028E8D14FF40A
:100430000013339014A8149302F024FBB0FA80F058
:100440004009DEE70038024008B50120FFF750FF01
:1004500028B9FFF7ADFF10B9014805F087FC08BDCA
:10046000588F2000DFF834D0002103E00C4B5B589C
:10047000435004310B480C4B42189A42F6D30B4AB6
:1004800002E0002342F8043B094B9A42F9D301F001
:1004900093FDFFF7F9FE7047704700000000082049
:1004A000A0A62000F8020020800400208004002084
:1004B00080130020FEE7000070B501F0F1F9041E82
:1004C00032DB1A4E56F8240000282DD08423184D14
:1004D0006343EB58DA69110609D5DA69120606D5C5
:1004E0001B681B0603D5134B01211B689847842307
:1004F0006343EB58DA6991060BD5DA69920608D5A1
:100500001B68980605D50B4B002156F824001B6884
:10051000984784235C432B59DA69110704D5DA69BB
:10052000120701D508221A6270BD00BFC008002062
:10053000A00400209C0400200148FFF7BDBF00BFBD
:10054000007C00400148FFF7B7BF00BF00780040C3
:100550000148FFF7B1BF00BF001401400148FFF799
:10056000ABBF00BF005000400148FFF7A5BF00BF70
:10057000004C00400148FFF79FBF00BF004800400B
:100580000148FFF799BF00BF004400400148FFF752
:1005900093BF00BF00100140002807DB0123410981
:1005A00000F01F00024A834042F82130704700BF2C
:1005B00000E100E000280CDB4309012200F01F00ED
:1005C00004492033824041F82320BFF34F8FBFF30B
:1005D0006F8F704700E100E0034B19604168034BE7
:1005E00043F82120704700BF9C040020C008002071
:1005F00030B4D0E900343448834249D02BD8A0F538
:10060000305083423ED020D8A0F50060834233D0E2
:1006100000F58060834232D00023184684256C4365
:100620002A4D2C59002A39D02268002933D142F0B2
:100630002002226000F11001254A926842F8213020
:10064000BFF34F8F30BCFFF7A7BF22488342E3D1EF
:10065000214B3520E2E7214883420AD000F5806033
:10066000834212D0A0F518408342D5D11C4B5320B1
:10067000D4E71C4B2520D1E71B4B2620CEE71B4B94
:100680002720CBE71A4B3420C8E71A4B4720C5E791
:10069000194B5220C2E742F08002CAE7236849B9E9
:1006A00023F020032360236813F0800F09D130BCAE
:1006B000FFF780BF23F080032360236813F0200F2F
:1006C000F4E730BC704700BF00780040A004002071
:1006D00000ED00E0005000405D05200000100140EA
:1006E000390520008D0520008105200075052000BA
:1006F000690520005105200045052000F8B5456832
:100700008423184F064603FB05739A68B2F5805F91
:1007100015D11B6940F2FF14002B18BFFF2484235E
:1007200003FB0573A3F85C40304601F059F800283C
:10073000FAD084235D437B59586A2040F8BD2AB91A
:100740001B69002B0CBFFF247F24E8E7B2F1805F18
:1007500005D11B69002B0CBF7F243F24DFE7002459
:10076000DDE700BFA004002070B505460C464668D2
:10077000284601F045F80028FAD08423C4F3080481
:100780005E43024B9B599C6270BD00BFA0040020D9
:1007900043692DE9F041DF0704460D4629D58768F6
:1007A0003449826807EA010C8368334EB943334801
:1007B00002EA060203EA000301D10121A160B2426C
:1007C00002D14FF48071A160834202D14FF4803195
:1007D000A16028498C4505D027498A4202D0274A82
:1007E000934206D1264B0121264A1B6852F8250068
:1007F0009847E268636996070CD098070AD5636941
:100800000021204A23F0020352F8250063611C4BAB
:100810001B689847A1696269890763690AD59705CA
:1008200008D51E0406D5164B0521164A1B6852F83A
:1008300025009847A16962694807636902D4636922
:10084000BDE8F0815105FAD51A040BD463691B0485
:10085000F6D50B4B02210B4A1B6852F82500BDE868
:10086000F0411847074A0721054B52F825001B683D
:100870009847EBE7030000040003000800000310A2
:10088000E0080020E408002000210148FFF780BFB5
:1008900000640040FFF7F8BFFFF7F6BF01210148F1
:1008A000FFF776BF00680040FFF7F8BFFFF7F6BF1D
:1008B00002210148FFF76CBF00340040FFF7F8BF8A
:1008C000FFF7F6BF91FAA1F3B3FA83F391FAA1F11E
:1008D00030B55B000325B1FA81F1046805FA03F332
:1008E000490024EA03038A401A43026030BD000035
:1008F00000B5454B8DB00A2800F28380DFE800F098
:1009000006131E29343F4A55606B76001A6B3F4828
:1009100042F001021A631B6B03F001030193019B78
:100920000DB05DF804FB1A6B394842F002021A63FD
:100930001B6B03F002030293029BF1E71A6B35482D
:1009400042F004021A631B6B03F004030393039B3E
:10095000E6E71A6B304842F008021A631B6B03F09B
:1009600008030493049BDBE71A6B2C4842F0100247
:100970001A631B6B03F010030593059BD0E71A6BFA
:10098000274842F020021A631B6B03F020030693F2
:10099000069BC5E71A6B234842F040021A631B6BA3
:1009A00003F040030793079BBAE71A6B1E4842F017
:1009B00080021A631B6B03F080030893089BAFE768
:1009C0001A6B1A4842F480721A631B6B03F480732B
:1009D0000993099BA4E71A6B154842F400721A6345
:1009E0001B6B03F400730A930A9B99E71A6B114877
:1009F00042F480621A631B6B03F480630B930B9BBE
:100A00008EE70D4805F0B2F90038024000000240C0
:100A10000004024000080240000C024000100240A6
:100A20000014024000180240001C02400020024056
:100A300000240240002802406C8F2000431C10B5A7
:100A4000044604D177220649064804F0A3FF4FF478
:100A5000707104F00F0400F0D9FA0120A04010BD1D
:100A6000E98F2000F48F20004B1C70B504460E4621
:100A7000018216D0C1F30310FFF73AFF0546304656
:100A8000FFF7DCFF238A074A03F00F03656120604C
:100A900052F82330A36105F1100318356360C4E9EF
:100AA000025570BD989C2000B0F9100000F042BBC8
:100AB0000A46D0E905010AB9FFF704BF0122FBE7A6
:100AC00008B501F04FF9002008BD000038B505F069
:100AD0002BF8124B124913485C6A02680B889B1A68
:100AE0002344B3F5803F17D34FF47A75B3FBF5F287
:100AF00005FB123305E00132A3F57A73B3F57A7F73
:100B0000F9D204609BB2084C0B8023681344236025
:100B100005F020F8206838BD0022EFE7000C004007
:100B2000F0080020F8080020F40800200048704772
:100B3000909C2000024BD869DA698242FBD1704751
:100B40000024004008B504F0EFFF084B01221A70A2
:100B50000022074B1A704FF00052064BC3F80821D1
:100B60009A60BDE8084004F0F5BF00BF0C09002002
:100B70000B09002000E100E010B504F0D5FF134B95
:100B80001A7842B9124A126811680907FCD508217F
:100B9000516001221A700F4C23781BB105F052FAF4
:100BA0000023237000230C4A13700C4A13704FF07B
:100BB00000520B4BC3F88820BFF34F8FBFF36F8FEA
:100BC000BDE81040C3F8882104F0C4BF0809002024
:100BD00010090020000900200B0900200C0900204A
:100BE00000E100E0404B70B51C68B2B024B132B0F7
:100BF000BDE87040FFF7C0BF01258C2221460FA839
:100C00001D6006F071FB3022214602A806F06CFB45
:100C1000042303954FF4802501934FF0407301A8FE
:100C20000E952B9301F010FC10B1304805F09EF8A2
:100C30000EA801F027FF08B12D48F7E72D4B4FF61E
:100C4000FF762D4C1A6C42F400721A641A6C02F48E
:100C500000720092009A1A6A42F400721A621A6ACA
:100C600022F400721A62A3F5053384F82E00E061C5
:100C7000A0622360C4E90100C4E90300C4E90800DC
:100C80002046C4E9056501F0F1FA054608B11B48A4
:100C9000CCE71B4B1B4A9B68C3F8B421BFF34F8FB3
:100CA000194B314620461A6842F400021A609A68CD
:100CB00042F400029A6023689A6842F001029A6046
:100CC0009A6842F008029A6001F022FB2368082229
:100CD0005A605D611A681207FCD508225A60012229
:100CE0000A4B1A7032B070BDFC080020079020003B
:100CF0002090200000380240100900204190200080
:100D000000ED00E0010E2000003C01400809002039
:100D100008B504F009FF064B01221B685A604FF02A
:100D20000052044BC3F88821BDE8084004F012BF0C
:100D30001009002000E100E070B5044604F0F4FE64
:100D4000FFF7F8FE264B05461C60264A4FF000517F
:100D50009160254E3278F2B9611F4FF6F5729142DB
:100D600022490FD94FF6FA7290420BD9063401226C
:100D7000A4B20A701C601E4B01221A70BDE87040BC
:100D800004F0E8BE00220A701B68AB42194B28BF72
:100D900001221A70EFE7FFF7BBFF00235A19013356
:100DA00092B2A24204BF0534A4B2052BF6D1124B75
:100DB000AC421B6811D24FF6FA7295420DD84FF033
:100DC000FF325A6100230D4C33702378002BD5D1AC
:100DD00005F022F901232370D0E75C61F2E700BF40
:100DE0000409002000E100E00809002009090020B2
:100DF0000B0900200A09002010090020000900202A
:100E000070B504F091FE2E4B2E4C1A7832B10022B0
:100E10001A70012223685A6003F05CFD23681A6887
:100E2000D50706D59A68D00703D501225A6003F08A
:100E300051FD23681A68110724D59A68120721D535
:100E40000822214C5A600122204B1A7023781BB1D2
:100E500005F0F8F8002323701D4C237893B11D4D45
:100E60001D492B7803F0FF06D3B1FFF763FE063070
:100E70000B6880B298420DD3FFF764FE00232B70FD
:100E800000232370154B4FF40002BDE870405A61F7
:100E900004F060BE0868063880B2FFF74DFFEDE74A
:100EA0000F4D2B7843B1FFF745FE0B68984203D3F3
:100EB000FFF748FE2E70E3E70868FFF73DFFDFE726
:100EC0000C0900201009002000090020080900205A
:100ED0000B0900200909002004090020003C014002
:100EE0000A090020FFF748BE704700002F4B5A69DF
:100EF000900370B515D45A6912F4003211D1BFF3C2
:100F00004F8FBFF36F8FC3F85022BFF34F8FBFF3E4
:100F10006F8F5A6942F400325A61BFF34F8FBFF3AB
:100F20006F8F224A5369D90327D4536913F480334E
:100F300023D1C2F88430BFF34F8FD2F8803043F60C
:100F4000E074C3F3C900C3F34E335B0103EA040644
:100F5000014646EA81750139C2F86052F9D2203B58
:100F600013F1200FF2D1BFF34F8F536943F4803355
:100F70005361BFF34F8FBFF36F8F0D4C01F02AF811
:100F800001F062F8236F9B0705D401F0E9F9236FA4
:100F900023F018032367FFF757FA01F01BF8FFF758
:100FA000A3FF044B01221A6070BD00BF00ED00E0FA
:100FB000003802404009002091FAA1F3B3FA83F30C
:100FC00091FAA1F130B55B000325B1FA81F1846893
:100FD00005FA03F3490024EA03038A401A438260B6
:100FE00030BD91FAA1F3B3FA83F391FAA1F130B5D0
:100FF0005B000325B1FA81F1C46805FA03F34900E7
:1010000024EA03038A401A43C26030BDB0F1FF3FB7
:101010002DE9F84380460E4600F0838000F00F0271
:10102000C1F38319404BC0F3031001F0070753F8D5
:101030002250FFF75DFCB9F10F0F044629460CBFA3
:1010400003224A46FFF7B8FF032F61D8DFE807F015
:1010500065672F02032395FAA5F2B2FA82F2032004
:101060002168013F5200012F00FA02F221EA020139
:1010700095FAA5F2B2FA82F24FEA420203FA02F3BB
:1010800043EA0103236005D8636832074CBF2B4352
:10109000AB436360C6F30112012A02D0022A18BFD3
:1010A000002229462046BDE8F843FFF79ABF18F012
:1010B000080FC6F3832217D02B0A4FF00F0C93FAB8
:1010C000A3F1B1FA81F1406A93FAA3F38900B3FA6C
:1010D00083F30CFA01F19B0020EA010102FA03F309
:1010E0000B4363620223B6E795FAA5F3B3FA83F3E1
:1010F000016A0F209B0000FA03F321EA030195FA2D
:10110000A5F3B3FA83F39B009A400A432262E9E70E
:10111000D5220649064804F03DFC00239BE7012345
:1011200099E7BDE8F88300BF989C2000B3902000A9
:10113000709B200038B5431C0D4634D000F00F02E0
:10114000194BC0F3031053F82240FFF7D1FB94FA78
:10115000A4F2B2FA82F2032301685200934094FA97
:10116000A4F20B406AB1B2FA82F25200D340013BC2
:10117000012B06D8EB1E022B436894BF2343A343E5
:101180004360013D042D0CD8DFE805F00309030B93
:10119000090001222146BDE83840FFF722BF0222A4
:1011A000F8E70022F6E738BD989C20000346C87C8B
:1011B00028B1082B07D8054A32F8130070470C2BCA
:1011C00002D8034AF8E70020704700BFF29C2000D5
:1011D000D89C200040F2C331B0F90400FFF716BFDD
:1011E00007EE901A2D4BF5EEC07AF0B5F1EE10FA3D
:1011F000076889B005461F6031D4B7EE007AF4EE77
:10120000477AF1EE10FA77FE277A2B8A07EE103A2A
:10121000B8EE477A67EE277A17EE900A05F0A4FE3B
:1012200060230646E860CDE9013000230393049370
:101230000793CDE90533AB7C5A1E032A1CD86FF007
:101240000304294604EB83042046FFF7AFFF3B6A03
:10125000984307D17CB1042C10D1BE630CE0DFEDC4
:10126000107AD2E7224601A90C4802F003F958B1DE
:101270000C4804F07BFD7E6309B0F0BD082C01D161
:10128000FE63F9E73E64F7E7EB7C2146034813B1C0
:1012900002F06AFAF0E702F0F7F9EDE744090020FE
:1012A00000000000BC9020008368ABB1038AD0ED41
:1012B000037A07EE103AF8EE676AB8EE477AC6EEA0
:1012C000877AB7EE007AF4EE477AF1EE10FA77FEFD
:1012D000277A17EE900A7047DFED017AF9E700BF31
:1012E000000000002DE9F0430268002387B0424E61
:1012F0000546894600933260FFF7D6FF116A41F236
:1013000011138046194208D1116A40F24443194230
:1013100003D1136823F001031360694601A801F0AB
:1013200093FB2C680022354BD1B2013253F83100C7
:10133000A042F9D114B9324804F018FD03EBC103FF
:101340001B793BBB01F010FB049A0090009B02B19B
:101350005B0007EE909ADFED2B6AB8EEE77ADFEDDF
:101360002A7A27EE277A07EE903AF8EE677A27EE88
:10137000277AC7EE267AFAFE677AFCEEE77A17EE4E
:10138000904AB4F5803F0AD940F289121F4920489B
:1013900004F000FB01F0F8FA059A0090D6E7F8EEA9
:1013A000E77AC7EE277A17EE900A05F0DDFDB0F573
:1013B000803F074604D34FF4C77214491548E7E746
:1013C000431E013C0C48F360002374603361B3603A
:1013D00001F0EEFF08B11048AEE741462846C5F8D7
:1013E00008902F82FFF7FCFE3268136843F0010378
:1013F000136007B0BDE8F08344090020289C20005A
:10140000D390200000FF7F47BD37863544912000F0
:10141000519120006C912000BC90200070B50E46C8
:101420008CB005466D49304603F082FA04466B499C
:10143000304603F093FA621C01462C6004D16B2203
:101440006749684804F0A6FA431C03D16F22644937
:101450006548F7E7C0F38433AB74C0F3C043EB7463
:10146000624B9C4227D103F59C335A6C42F0010237
:101470005A645B6C03F001030093009B5C4B9C423D
:1014800026D103F59A335A6C42F002025A645B6C1F
:1014900003F002030593059B564B9C4226D103F5AE
:1014A00007331A6C42F080021A641B6C03F080034D
:1014B0000A930A9B45E0B4F1804F26D14E4B1A6C3B
:1014C00042F001021A641B6C03F001030193019BBB
:1014D0004A4B9C4227D103F578435A6C42F4803240
:1014E0005A645B6C03F480330693069B444B9C4226
:1014F00027D103F506331A6C42F480721A641B6C10
:1015000003F480730B930B9B1BE03E4B9C4229D151
:1015100003F50D331A6C42F002021A641B6C03F0DF
:1015200002030293029B384B9C4229D103F574437A
:101530005A6C42F400325A645B6C03F40033079334
:10154000079B3046FFF762FD002344F620612846E2
:10155000AE80C5E9023301232B820CB0BDE8704098
:10156000FFF7C0BE294B9C4219D103F50C331A6C0E
:1015700042F004021A641B6C03F004030393039B00
:10158000234B9C421AD103F570435A6C42F48022DB
:101590005A645B6C03F480230893089BD1E71D4BCE
:1015A0009C427FF46BAF03F50B331A6C42F00802D8
:1015B0001A641B6C03F008030493049B164B9C42B3
:1015C0007FF46AAF03F508331A6C42F040021A64E4
:1015D0001B6C03F040030993099BB2E71C8C2000AD
:1015E000449120008D912000A59120000000014031
:1015F00000040140001C004000380240004001404F
:101600000020004000040040004401400008004069
:1016100000480140000C004000180040006800F045
:1016200001007047C069C0F3801070470FB4074BCA
:101630001B6807B5064905AAD868019204F005F8A9
:1016400003B05DF804EB04B0704700BF1404002041
:10165000BE9120000368584A934210B5044647D112
:1016600002F59432516A41F010015162516A21F041
:1016700010015162516C21F0100151644F4A9342A4
:1016800047D14F4B5A6A42F020025A625A6A22F0FE
:1016900020025A625A6C22F020025A6440F2C3318E
:1016A000B4F91800FFF7B2FC40F2C331B4F91A00E4
:1016B000FFF7ACFC236A23F40073B3F5807F05D1F8
:1016C00040F2C331B4F92400FFF7A0FC236A23F4ED
:1016D0008073B3F5007F05D140F2C331B4F9260021
:1016E000FFF794FC62680021364B43F8221010BDCE
:1016F000354A93421DD102F5FA32116A41F40031A4
:101700001162116A21F400311162116C21F400316F
:1017100011642E4A93421DD1294B1A6A42F080422D
:101720001A621A6A22F080421A621A6C22F080420F
:101730002FE0274A93421DD102F5F832116A41F495
:1017400080211162116A21F480211162116C21F44F
:10175000802111641F4A9342A0D1194B1A6A42F0AA
:1017600000421A621A6A22F000421A621A6C22F0CF
:1017700000420EE0184A93420DD1114B1A6A42F40E
:1017800000221A621A6A22F400221A621A6C22F4E7
:1017900000221A6482E7114A93427FF46FAF084B2C
:1017A0001A6A42F480121A621A6A22F480121A62C9
:1017B0001A6C22F48012ECE7001001400014014082
:1017C00000380240C008002000440040007800407B
:1017D00000480040007C0040004C004000500040A9
:1017E000842243685343054AD358DA69120701D566
:1017F00008221A62D869C0F340107047A004002084
:10180000436884225343034AD358D869C0F3C010B5
:10181000704700BFA004002030B40346446884220F
:1018200016491D6862438D5050189A684260DA6804
:1018300082601A69C2605A6902611A6A8261002272
:10184000A0F85220C261A0F85020A0F85A20A0F8B9
:101850005820C0E90822B3F91A2001320CD0B3F99C
:1018600018305A1C0CBF04230C23842202FB0411E1
:1018700030BC4B6102F04AB90823F6E7A00400200F
:1018800010B581600C46FFF7C7FF28B12146034819
:10189000BDE81040FFF7CABE10BD00BFBE912000DA
:1018A000184B98421FD0A3F54C4398421DD003F526
:1018B000806398421BD003F58063984219D003F5EA
:1018C0008063984217D003F54443984215D0A3F59E
:1018D0001C43984213D003F5806398420CBF072045
:1018E0004FF0FF3070470020704701207047022002
:1018F000704703207047042070470520704706207A
:10190000704700BF001001402DE9F0470F46164612
:1019100088B06F490446384603F00AF882466D499C
:10192000304603F005F80146504602F0DDFF6849F5
:101930000546384603F012F866498146304603F002
:101940000DF8382F80460AD0392E08D0604938204B
:1019500002F0EEFF50450CD15F4804F007FA4FF05B
:10196000010A691C256007D141225C495C4804F0EA
:1019700011F84FF0000AF4E75A4B9D4219D103F5D4
:1019800094335A6C42F010025A645B6C03F01003FB
:101990000093009B544B9D4219D103F592335A6C2E
:1019A00042F020025A645B6C03F020030593059B10
:1019B00047E04E4B9D4219D103F5FA331A6C42F4BD
:1019C00000321A641B6C03F400330193019B484BF3
:1019D0009D4219D103F5E0331A6C42F080421A643B
:1019E0001B6C03F080430693069B2AE0414B9D420B
:1019F00019D103F5F8331A6C42F480221A641B6C77
:101A000003F480230293029B3B4B9D4219D103F5C3
:101A1000DE331A6C42F000421A641B6C03F0004380
:101A20000793079B0DE0354B9D4214D103F5F63328
:101A30001A6C42F400221A641B6C03F40023039313
:101A4000039B2846FFF72CFF0028606012DAA022D3
:101A500022492B488BE72B4B9D429BD103F5F43356
:101A60001A6C42F480121A641B6C03F48013049302
:101A7000049BE6E749463846FFF7C8FA0121384695
:101A8000FFF758FB41463046FFF7C0FA30460121C8
:101A9000FFF750FB00234FF4E132204623622783F7
:101AA0006683C4E90223C4E90433FFF7B5FEBAF143
:101AB000000F0AD0144B0122214614481A604C2210
:101AC00008B0BDE8F04705F0C1BE08B0BDE8F0873A
:101AD000148B20000C8A2000E891200079922000CD
:101AE0008692200000100140001401400044004094
:101AF0000078004000480040007C0040004C00405E
:101B0000A292200000500040DC0900209009002033
:101B100008B52948FFF782FD034628B12648FFF79C
:101B200081FDB0FA80F35B092448FFF777FD28B107
:101B30002248FFF777FD002808BF01232048FFF760
:101B40006DFD28B11E48FFF76DFD002808BF012379
:101B50001C48FFF763FD28B11A48FFF763FD002812
:101B600008BF01231848FFF759FD28B11648FFF7B1
:101B700059FD002808BF01231448FFF74FFD28B185
:101B80001248FFF74FFD002808BF01231048FFF758
:101B900045FD28B10E48FFF745FD002808BF012389
:101BA0000C48FFF73BFD28B10A48FFF73BFD002832
:101BB00008BF0123184608BD001001400044004042
:101BC00000480040004C004000500040001401401C
:101BD00000780040007C0040034A516A536A5B1A57
:101BE0008342FBD3704700BF000C004010B50024B7
:101BF00086B01422214601A8009405F075FB6946C1
:101C000001A800F021FF0F23009901A8019305947A
:101C10000494CDE9024400F009FE10B1024804F03A
:101C2000A5F806B010BD00BFB492200000B58FB07B
:101C30000021342201A805F057FB0F4B01A81A6CB4
:101C400042F080521A641B6C03F080530093009B97
:101C500000F0AAFE0223012101A801931023CDE97F
:101C600004130023079300F0EFFB10B1034804F0C6
:101C70007DF80FB05DF804FB00380240DC922000D4
:101C800008B503F051FF064B0121186810F0010060
:101C900018BF084600F06CFBBDE8084003F05ABFCF
:101CA0000070004038B5FFF733FF0446D8B903F0A1
:101CB0003BFF0D4D00F0F0F80121084600F06CFBF1
:101CC0002C60FFF7B3FFFFF791FFFEF7BDFB4FF46A
:101CD000FA70FFF781FF00F0F7F801232B60BDE8F1
:101CE000384003F037BF38BD40090020014B186869
:101CF00001F078B9F4090020014B186801F072B9BD
:101D0000F0090020014B186801F06CB9EC090020C3
:101D1000014B186801F066B9E8090020014B18680A
:101D200001F060B9E4090020014B186801F05AB9CC
:101D3000E0090020074B084A13601A69910707D58C
:101D4000DA68920704D56FF002021A6103F024B832
:101D5000704700BF000C0040040A00200048704794
:101D6000049D200030B589B0244C01A903A800F0DF
:101D70006BFE00F0F9FD224B01901A6C42F0080254
:101D80001A641A6C02F008020292029A1A6A42F06D
:101D900008021A621A6A22F008021A62A3F50B33CB
:101DA000069A23604FF0FF33E360164B0ABBB0FB8B
:101DB000F3F3581E0025606010482561A560C4E952
:101DC000055501F0C5FA104B104A9B68C3F808216D
:101DD000BFF34F8F0E4B4FF480225A6007482946BD
:101DE00001F0D2FB2268D36823F00203D36009B06C
:101DF00030BD4000B0FBF3F00138DBE7040A0020FF
:101E00000038024040420F0000ED00E0351D200088
:101E100000E100E0044800210268D36823F00203D7
:101E2000D36001F0B1BB00BF040A0020014B586A27
:101E3000704700BF000C0040054B6FF002021B68AA
:101E400058631A61DA6842F00202DA60704700BF34
:101E5000040A0020064B6FF002021B681A615A69DF
:101E600042F002025A61DA6842F00202DA60704718
:101E7000040A0020034B1A68D36823F00203D360DE
:101E8000704700BF040A0020024B6FF002021B687B
:101E90001A617047040A0020064B074A1B68596AFA
:101EA00011605A6B054B1A60054BDA68054B1A60D6
:101EB000704700BF040A0020000A0020FC0900202F
:101EC000000C0040F8090020064B074A1B68126806
:101ED0005A62064A12685A63054B1A68054BDA6063
:101EE000704700BF040A0020000A0020FC090020FF
:101EF000F8090020000C0040014B186800F0DEB823
:101F0000500A0020014B586800F0D8B8500A002051
:101F1000014B986800F0D2B8500A0020014BD868F5
:101F200000F0CCB8500A0020014B186900F0C6B888
:101F3000500A0020014B586900F0C0B8500A002038
:101F4000014B986900F0BAB8500A0020014BD869DB
:101F500000F0B4B8500A0020014B186A00F0AEB887
:101F6000500A0020014B586A00F0A8B8500A00201F
:101F7000014B986A00F0A2B8500A0020014BD86AC1
:101F800000F09CB8500A0020014B186B00F096B886
:101F9000500A0020014B586B00F090B8500A002006
:101FA000014B986B00F08AB8500A0020014BD86BA7
:101FB00000F084B8500A0020044B054A9A60D3F818
:101FC000882042F47002C3F88820704700ED00E0DA
:101FD00000002000164B9A6802F00C02042A22D05E
:101FE000082A22D159685A6849025B6802F03F0208
:101FF00048BF1049C3F3881358BF0F49B1FBF2F231
:1020000053430B4A5268C2F3014201325200B3FB00
:10201000F2F3074A09499268C2F303128A5CD3407B
:10202000074A13607047034BF3E7034BF1E700BF28
:102030000038024000127A000024F400149D2000B1
:10204000FC0200207047000008B5094B03201A6805
:1020500042F400721A601A6842F480721A6000F04A
:1020600009F80F20FEF72CFDFFF7ECFF002008BD5C
:10207000003C024007490302CA6803F4E06322F40B
:10208000E0621204120C134343F0BF6343F40033C5
:10209000CB60704700ED00E090F83530022B03D0A4
:1020A00080234365012070470268052380F835309E
:1020B0000020136823F00103136070470023F7B575
:1020C000019308225B4B0446856D1F68C36D2E6823
:1020D0009A4032420CD001680868400708D5086869
:1020E00020F004000860AA60626D42F0010262659F
:1020F00001229A40324208D021684969090604D574
:10210000AA60626D42F00202626504229A40324285
:1021100008D021680968880704D5AA60626D42F07A
:102120000402626510229A40324210D02368196876
:1021300009070CD5AA601A68500337D51B68190324
:1021400001D4236C00E0A36C0BB120469847E16DED
:1021500020228A4032423AD023681868C60636D513
:10216000AA6094F83520052A1A6827D122F01602B1
:102170001A605A6922F080025A61226C0AB9A26C74
:102180001AB11A6822F008021A603F238B40AB6034
:10219000002384F83430012384F83530236D002B7C
:1021A00045D0204603B0BDE8F04018471A68D20574
:1021B000C7D41A6822F008021A60C2E7500327D574
:1021C0001B68190331D4636C0BB120469847636DCB
:1021D0006BB3636DDA0719D54FF416532268B7FB5A
:1021E000F3F7052384F83530136823F001031360F7
:1021F000019B0133BB42019302D81368DB07F7D47C
:10220000002384F83430012384F83530E36CC6E7CA
:102210001A6812F4807208D1196821F0100119604F
:10222000012384F8342084F83530E36BCCE703B025
:10223000F0BD00BFFC0200200A4B44F620621B6880
:10224000B3FBF2F34FF47A7210B5534304680020E5
:10225000013B226808BF032031EA020201D0002BB3
:10226000F6D110BDFC02002070470000F8B504460E
:10227000002848D090F82E3003F0FF021BB980F8F8
:102280002D20FFF7F1FF616802232068012984F8FF
:102290002E30A56AC36802D0B5F5000F01D123F036
:1022A0001E034FF6FF766269184FB242A6681CBF44
:1022B00023F4604323F0C0031F4041EA0503334386
:1022C000266A3343666A33433B43A9B9E169266909
:1022D00031430B43B5F5000F10D04FF6FF718A4222
:1022E00004D0A1690A43E1690A431343C36001238F
:1022F000002084F82E30F8BD0129EBD1D4E9031574
:1023000029430B43E9E70120F5E700BFFEF119FF80
:10231000022238B580F82E2004460B46D0E9005240
:10232000012A07D0826AB2F5000F03D1EA6822F4CD
:102330006062EA602A691021204642F001022A61A7
:102340006960AB61FFF778FF032807D02B69002095
:1023500043F004032B61012384F82E3038BD0000C4
:10236000024A136843F480731360704700700040A2
:10237000084A136923F004031361BFF34F8FBFF3BF
:102380006F8F012901D130BF704740BF20BF20BFF0
:10239000704700BF00ED00E00D4A136823F003030F
:1023A000034313600B4B1A6942F004021A61BFF336
:1023B0004F8FBFF36F8F012905D130BF1A6922F00B
:1023C00004021A61704740BF20BF20BFF6E700BF7C
:1023D0000070004000ED00E0194B37B51A6C194C45
:1023E00042F080521A641B6C03F080530193019BEE
:1023F000236843F480332360FEF768FB0546636877
:10240000DA030CD523680F4D43F400332360FEF745
:102410005DFB04466B689B030AD5002006E0FEF7CF
:1024200055FB401BB0F57A7FE9D9032003B030BDDE
:10243000FEF74CFB001BB0F57A7FEBD9F5E700BF48
:1024400000380240007000402DE9F341044618B9FD
:10245000012002B0BDE8F0810368DE0710D42368D4
:102460009D075ED42368190700F1A38023685A07EB
:1024700000F1C480A269002A40F02E810020E8E724
:10248000934B9A6802F00C02042A07D09A6802F073
:102490000C02082A0AD15B68590207D58C4B1B68CD
:1024A0009A03DCD56368002BD9D1D1E76368884DE6
:1024B000B3F5803F11D12B6843F480332B60FEF7D6
:1024C00005FB834E054633689B03C8D4FEF7FEFA2E
:1024D000401B6428F7D90320BBE79BB92B6823F482
:1024E00080332B602B6823F480232B60FEF7EEFAF9
:1024F00006462B689F03B2D5FEF7E8FA801B6428D6
:10250000F7D9E8E7B3F5A02F2B6803D143F4802374
:102510002B60D0E723F480332B602B6823F48023D7
:10252000CCE76B4B9A6812F00C0F07D09A6802F058
:102530000C02082A11D15B685D020ED4644A13684C
:10254000990702D5E368012B82D11368216923F032
:10255000F80343EAC103136084E7E3685C4DBBB151
:102560002B6843F001032B60FEF7B0FA06462B6898
:102570009B0707D52B68226923F0F80343EAC203BF
:102580002B606FE7FEF7A2FA801B0228EFD9A2E7C3
:102590002B6823F001032B60FEF798FA06462B68A0
:1025A0009F077FF55FAFFEF791FA801B0228F6D9EF
:1025B00091E76369464D83B16B6F43F001036B672D
:1025C000FEF784FA06466B6F9B073FF54FAFFEF7A9
:1025D0007DFA801B0228F6D97DE76B6F23F001039B
:1025E0006B67FEF773FA06466B6F9F077FF53EAF8A
:1025F000FEF76CFA801B0228F6D96CE7344B1A6C94
:10260000D50027D41A6C012742F080521A641B6C43
:1026100003F080530193019B2E4D2B68D8051BD5E9
:10262000A3682B4D012B27D12B6F43F001032B67A0
:1026300041F28838FEF74AFA254E0546336F9A076D
:102640003FD5002F3FF416AF214A136C23F080537F
:1026500013640FE70027DFE72B6843F480732B60D8
:10266000FEF734FA06462B68D905D9D4FEF72EFAC0
:10267000801B6428F7D92EE7ABB92B6F41F288385D
:1026800023F001032B672B6F23F004032B67FEF766
:102690001DFA06462B6F9B07D3D5FEF717FA801B52
:1026A0004045F7D917E7052B2B6F03D143F00403FF
:1026B0002B67B9E723F001032B672B6F23F004038B
:1026C000B5E7FEF703FA401B4045B7D903E700BF63
:1026D00000380240007000403C4DAB6803F00C0332
:1026E000082B42D02B68022A23F080732B602FD155
:1026F000FEF7ECF906462B68990123D4D4E907329A
:102700001343626A43EA8213E26A43EA0263226B7A
:1027100043EA0273A26A5208013A43EA02436B6039
:102720002B6843F080732B60FEF7D0F9274D0446E9
:102730002B689A013FF5A2AEFEF7C8F9001B0228EC
:10274000F6D9C8E6FEF7C2F9801B0228D3D9C2E643
:10275000FEF7BCF904462B689B017FF58FAEFEF7B0
:10276000B5F9001B0228F6D9B5E6012A6B683FF4DB
:102770006FAE03F48002E1698A427FF469AE03F030
:102780003F02216A8A427FF463AE47F6C072616AF3
:102790001A40B2EB811F7FF45BAEA26A03F44031B2
:1027A0005208013AB1EB024F7FF452AE03F070626F
:1027B000E16AB2EB016F7FF44BAE226B03F0E043B2
:1027C000B3EB027F14BF0120002042E60038024034
:1027D000134908B58B6803F00C03042B1BD0082B9E
:1027E0001BD14A684B68496802F03F0213F480032A
:1027F000C1F388111ABF0B4800230B48A1FB00014D
:1028000005F02AFF064B5B68C3F3014301335B000D
:10281000B0FBF3F008BD0348FCE70348FAE700BF4C
:102820000038024000127A000024F4002DE9F04143
:102830000D46044610B90120BDE8F081454A1368F1
:1028400003F00F038B4228D321688F0730D4C807C9
:1028500043D4404A136803F00F03AB4266D82268A2
:1028600051076FD4130707D53B4A2169936823F4B6
:10287000604343EAC1039360FFF7AAFF364B374A30
:102880009B68C3F30313D35CD840354B1860354BBA
:102890001868FEF715F90020CEE7136823F00F0340
:1028A0000B431360136803F00F038B42C3D1CBE7D4
:1028B00011F0040F284B03D09A6842F4E0529A605A
:1028C0000E0703D59A6842F460429A609A68A0683D
:1028D00022F0F00202439A60B9E761681E4B0129B9
:1028E0001A681BD112F4003FA5D09A6841F28838CB
:1028F000194F22F003020A439A60FEF7E7F80646F2
:10290000BB68626803F00C03B3EB820FA1D0FEF743
:10291000DDF8801B4045F3D903208DE7022902D161
:1029200012F0007FE0E712F0020FDDE7136823F0FA
:102930000F032B431360136803F00F03AB427FF4C4
:102940007AAF8CE70449E0688B6823F4E0530343D3
:102950008B6087E7003C024000380240149D200055
:10296000FC02002000030020044B054A9B68C3F3CF
:102970008223D35C034A1068D84070470038024075
:102980000C9D2000FC020020044B054A9B68C3F309
:102990004233D35C034A1068D84070470038024085
:1029A0000C9D2000FC0200200F230360254B1A68B9
:1029B000510341D41A6802F4803242601A6802F06E
:1029C0000102C2601A68C2F3C40202611A6F5207A0
:1029D00035D41B6F03F0010383601A4B5A6F02F06A
:1029E000010242611A6812F0807F0CBF01220222AC
:1029F00082615A6802F48002C2615A6802F03F02A2
:102A000002625A68C2F3881242625A6802F4403283
:102A100002F58032D20B82625A68C2F30362C2624C
:102A20004FF0E0425B6892FAA2F203F0E043B2FAA0
:102A300082F2D340036370474FF4A022BDE7052321
:102A4000CAE700BF003802400F2303600B4B9A68AF
:102A500002F0030242609A6802F0F00282609A6813
:102A600002F4E052C2609B68DB0803F4E0530361A8
:102A7000034B1B6803F00F030B60704700380240E4
:102A8000003C024003682DE9F74313F001060446B9
:102A90000BD0B14A916821F400019160466B9168B6
:102AA0003143B6FA86F67609916013F4002512D008
:102AB000A949E56BD1F88C20B5F5801F22F44012AE
:102AC00008BF012642EA050216BFB5FA85F50025C2
:102AD0006D09C1F88C20D90210D59F48216CD0F81F
:102AE0008C20B1F5800F22F4400242EA0102C0F8C6
:102AF0008C2000F0AA81002908BF012513F0807FF7
:102B000018BF01269A0632D5934B944F1A6C42F0A7
:102B100080521A641B6C03F080530193019B3B6845
:102B200043F480733B60FDF7D1FF80463B68DB05D3
:102B300040F18D81884F226B3B6F13F4407340F05E
:102B40009181236B03F44072B2F5407F824A40F0DA
:102B5000AE81916823F0704021F4F81120F44070A8
:102B600001439160C3F30B03116F0B431367236899
:102B7000DA060CD5784AD2F88C1021F08071C2F8B0
:102B80008C10D2F88C10A06B0143C2F88C105F043B
:102B900008D57149606ED1F8902022F4403202438A
:102BA000C1F89020180408D56B49A06ED1F8902088
:102BB00022F440220243C1F89020D90308D5664987
:102BC000E06ED1F8902022F440120243C1F8902028
:102BD0009A0308D56049206FD1F8902022F4400272
:102BE0000243C1F890205F0608D55B49606CD1F8BC
:102BF000902022F003020243C1F89020180608D565
:102C00005549A06CD1F8902022F00C020243C1F883
:102C10009020D90508D55049E06CD1F8902022F0D9
:102C200030020243C1F890209A0508D54A49206D28
:102C3000D1F8902022F0C0020243C1F890205F0535
:102C400008D54549606DD1F8902022F440720243C6
:102C5000C1F89020180508D53F49A06DD1F8902003
:102C600022F440620243C1F89020D90408D53A49C1
:102C7000E06DD1F8902022F440520243C1F8902038
:102C80009A0408D53449206ED1F8902022F44042AD
:102C90000243C1F890205F0208D52F49A06FD1F8F8
:102CA000902022F080620243C1F8902098020CD557
:102CB0002948E16FD0F89020B1F1006F22F0006256
:102CC00008BF01250A43C0F8902013F0080F18BF71
:102CD0000125590308D52049606FD1F8902022F0D2
:102CE00040720243C1F890201A0209D51A49D4F85B
:102CF0008000D1F8902022F080520243C1F8902049
:102D00005F0109D51449D4F88400D1F8902022F04D
:102D100000520243C1F89020180109D50E49D4F899
:102D20008800D1F88C2022F000720243C1F88C2078
:102D3000D90009D50849D4F88C00D1F88C2022F0AC
:102D400080620243C1F88C20012E00F0B4809A0109
:102D500000F1B18004E000BF003802400070004084
:102D6000012D70D19D4D2B6823F080532B60FDF712
:102D7000ADFE06462B689F0000F1218121680E03FD
:102D800001D5E36B1BB1CD021DD5236CDBB9934A92
:102D9000D2F88830D2F8880003F4403300F0E040E5
:102DA0000343606943EA8013A06943EA0063C2F801
:102DB0008830D2F88C30A06A23F4F853013843EA03
:102DC0000023C2F88C30880215D5E36FB3F1006F91
:102DD00011D1824AD2F88830D2F8880003F07063AB
:102DE00000F0E0400343606943EA8013206A43EA4D
:102DF0000043C2F888300A0719D5784AD2F88810FB
:102E0000D2F8883001F0706103F440330B436169FC
:102E100043EA8113E16943EA0173C2F88830D2F8CA
:102E20008C30E16A23F440330B43C2F88C306B4C96
:102E3000236843F080532360FDF748FE054623686E
:102E40009B0040F1C380002009E0012656E6FDF713
:102E50003DFEA0EB080064287FF668AE032003B0B7
:102E6000BDE8F08302F4407293423FF46AAE3B6FD8
:102E70003A6F23F4407342F480323A673A6F22F497
:102E800080323A673B673B6FD8077FF55AAEFDF754
:102E90001DFE41F2883980463B6F99073FF551AEE0
:102EA000FDF714FEA0EB08004845F5D9D6E7916878
:102EB00021F4F81155E6494E336823F080633360FE
:102EC000FDF704FE074633681B0172D42268D7075A
:102ED00012D5636B83B9D6F88430D6F8841003F426
:102EE000403301F070610B43616843EA8113A168CC
:102EF00043EA0173C6F88430160303D5E36BB3F5D8
:102F0000801F05D0D0021ED5236CB3F5800F1AD1D7
:102F10003249D1F88430D1F8840003F4403300F012
:102F2000E0400343606843EA8013E06843EA0063DB
:102F3000C1F88430D1F88C00636A20F01F00013B97
:102F40000343C1F88C30D10111D52449D1F8843024
:102F5000D1F8840003F0706300F0E0400343606840
:102F600043EA8013206943EA0043C1F884309201A8
:102F70000DD5236962681B0443EA8213E26843EAC1
:102F80000263A26843EA0273144AC2F88430134E03
:102F9000336843F080633360FDF798FD074633687C
:102FA0001B013FF5DDAEFDF791FDC01B6428F6D98E
:102FB00054E7FDF78BFDC01B642884D94EE7FDF76D
:102FC00085FD801B64287FF6D5AE47E7FDF77EFDC3
:102FD000401B64287FF633AF40E700BF0038024053
:102FE000704700000368F0B55D6885B09A680446D4
:102FF00056064FEA9211C2F3801708D4D60706D5B9
:103000006E0604D5C36C05B0BDE8F04018479607BE
:1030100004D5280602D5236D2046F4E741EA521173
:1030200002F48070560901F00101014356D0AA064E
:1030300054D577B194F85D200021032A48D0226E40
:1030400042F0040222660091DA6800929A680092C7
:10305000009AF1070CD5226E42F00102226600228E
:1030600002929A6802921A6822F040021A60029A4A
:1030700040B1226E42F008022266002203929A6852
:103080000392039A226E4AB35A6822F0E0025A6011
:10309000012284F85D20AA0722D05A68A06D22F090
:1030A00003025A6040B1104B0365FEF7F5FF18B1FB
:1030B000236E43F040032366606D78B10A4B0365CD
:1030C000FEF7EAFF50B1236E43F04003236605E0AC
:1030D0000191DA6801929B680193019B05B0F0BDF4
:1030E0002046FFF77DFFF9E7ED30200008B5806B43
:1030F0000023A0F84630C387FFF772FF08BD000029
:10310000036A23F0010370B50362036A42688469AD
:1031100023F002030D6824F4803424F073042C435C
:103120008D682B430C4DA84203D005F58065A8425D
:103130000BD1CD6823F0080322F440722B43D1E970
:10314000055623F0040335432A4342604A688461EC
:103150004263036270BD00BF00000140036A23F4B4
:10316000807370B50362036A4268C46923F4007314
:103170000D6824F4803424F073042C438D6843EAF2
:1031800005230D4DA84203D005F58065A8420DD159
:10319000CD6823F4006322F4405243EA0523D1E9C9
:1031A000055623F48063354342EA051242604A68BB
:1031B000C461C263036270BD00000140036A23F46E
:1031C000805330B50362026A4468C36922F4005236
:1031D0000D6823F0807323F4E64343EA05238D68EA
:1031E00042EA0532084DA84203D005F58065A842A1
:1031F00004D124F480444D6944EA85144460C361D9
:103200004B680364026230BD00000140036A23F48E
:10321000803330B50362026A4468436D22F40032A1
:103220000D6823F4803323F070032B438D6842EA4A
:103230000542094DA84203D005F58065A84204D196
:1032400024F480344D6944EA0524446043654B68A6
:103250008365026230BD00BF00000140036A23F4B1
:10326000801330B50362026A4468436D22F4001291
:103270000D6823F0807323F4E04343EA05238D684F
:1032800042EA0552084DA84203D005F58065A842E0
:1032900004D124F480244D6944EA852444604365C4
:1032A0004B68C365026230BD000001407047704743
:1032B000254A0368904212D0B0F1804F0FD0A2F59A
:1032C0007C4290420BD002F58062904207D002F51A
:1032D0008062904203D002F57842904208D123F0F8
:1032E00070034A68134323F44073CA68134316E01B
:1032F000164A9042F7D002F580629042F3D002F570
:1033000080629042EFD0A2F598329042EBD002F565
:1033100080629042E7D002F580629042E3D04A6931
:1033200023F08003134303608B68C3620B688362DE
:10333000054B984203D003F58063984201D10B6995
:1033400003630123436170470000014000400140D6
:1033500010B5044650B390F83D3003F0FF021BB99E
:1033600080F83C20FFF7A2FF02232068211D84F88B
:103370003D30FFF79DFF0123002084F8483084F89A
:103380003E3084F83F3084F8403084F8413084F88F
:10339000423084F8433084F8443084F8453084F86F
:1033A000463084F8473084F83D3010BD0120FCE7FA
:1033B00010B5044650B390F83D3003F0FF021BB93E
:1033C00080F83C20FFF773FF02232068211D84F85A
:1033D0003D30FFF76DFF0123002084F8483084F86A
:1033E0003E3084F83F3084F8403084F8413084F82F
:1033F000423084F8433084F8443084F8453084F80F
:10340000463084F8473084F83D3010BD0120FCE799
:10341000036A23F0100370B50362036A426884698B
:1034200023F020030D6824F0807424F4E64444EA79
:1034300005248D6843EA05130D4DA84203D005F518
:103440008065A8420DD1CD6823F0800322F440624C
:1034500043EA0513D1E9055623F04003354342EA18
:10346000850242604A6884618263036270BD00BF66
:103470000000014038B590F83C300446012B72D072
:1034800001230C2A80F83C304DD008D8042A2AD0D9
:10349000082A38D0BAB1002084F83C0038BD102A80
:1034A00051D0142AF7D10068FFF7D8FE0A69436D9E
:1034B00043F400634365436D23F480634365436DC8
:1034C00043EA02234DE00068FFF71AFE0A698369A8
:1034D00043F008038361836923F0040383618369F4
:1034E00013438361D7E70068FFF792FF0A69836996
:1034F00043F400638361836923F480638361836998
:1035000043EA0223EDE70068FFF728FE0A69C36972
:1035100043F00803C361C36923F00403C361C369B3
:103520001343C361B7E70068FFF748FE0A69C36940
:1035300043F40063C361C36923F48063C361C36957
:1035400043EA0223EDE70068FFF760FE0A69436D76
:1035500043F008034365436D23F004034365436D63
:103560001343436597E7022098E701F01F01036AC0
:1035700010B501248A408C4023EA04030362036AE5
:103580001A43026210BD0000082908B528D012D8DD
:10359000C1B104291CD090F84330012B16D1082961
:1035A00005D90C294FF0020346D0102947D0022339
:1035B00080F8433027E00C291FD01029EBD190F878
:1035C00042300FE090F83E30012B19D0012032E05C
:1035D00090F83F30012BF9D1022380F83F3012E000
:1035E00090F84030013B18BF0123002BEED1082991
:1035F000D7D1022380F8403005E090F84130F1E760
:10360000022380F83E3000680122FFF7AEFF1B4B1B
:10361000984203D003F58063984213D1436C43F47E
:10362000004343648268164B1340062B02D0B3F567
:10363000803F1DD1002008BD80F84130E3E780F8CD
:103640004230E0E7B0F1804FECD00E4B9842E9D029
:1036500003F580639842E5D003F580639842E1D09A
:1036600003F59A339842DDD0A3F594339842D9D02C
:10367000036843F001030360DCE700BF0000014082
:103680000700010000040040FFF77EBF01F01F01AA
:10369000036A10B504248A408C4023EA04030362C1
:1036A000036A1A43026210BD08B529B990F8443084
:1036B000012B1DD0012051E0042907D190F845309D
:1036C000012BF7D1022380F8453014E0082907D1F7
:1036D00090F84630012BEDD1022380F846300AE005
:1036E00090F84730012BE5D1022380F8473002E003
:1036F000022380F8443000680422FFF7C7FF436CC0
:1037000043F400434364164B98421AD0B0F1804F03
:1037100017D0A3F57C43984213D003F580639842F9
:103720000FD003F5806398420BD003F5784398429D
:1037300007D003F57053984203D0A3F59433984211
:1037400007D18268074B1340062B06D0B3F5803FA4
:1037500003D0036843F001030360002008BD00BFED
:103760000000014007000100FFF79EBF7047000006
:1037700038B50446C0692169A26823680A436169B3
:103780001D680A436F4902432940256A0A43E168DC
:103790001A605A6822F440520A435A60A269996832
:1037A0002A4321F430610A439A60674A934213D155
:1037B000664BD3F8903003F00303022B00F0A68091
:1037C000032B00F09D80012B68D0B0F5004F00F076
:1037D0009180FFF7D9F812E05D4A934227D15B4B05
:1037E000D3F8903003F00C03082B00F08F8017D82B
:1037F000002B53D1B0F5004F77D0FFF7B5F8002874
:1038000076D0626800EB5203B3FBF2F39BB24FF643
:10381000EF72A3F11001914204D82268D36067E0EF
:103820000C2B6DD001200023C4E9193338BD494A5F
:10383000934209D1454BD3F8903003F03003202B4D
:1038400064D0D5D9302BECE7434A934209D13F4BA2
:10385000D3F8903003F0C003802B57D0C8D9C02BC9
:10386000DFE73E4A93420BD1384BD3F8903003F454
:103870004073B3F5007F49D0BAD9B3F5407FD0E7A4
:10388000374A934213D1314BD3F8903003F440635D
:10389000B3F5006F3AD007D8002B96D0B0F5004FA3
:1038A0002BD1FEF795FF22E0B3F5406FB9E72D4A23
:1038B00093420BD1254BD3F8903003F44053B3F52A
:1038C000005F23D094D9B3F5405FAAE7264A93421C
:1038D000A8D11E4BD3F8903003F44043B3F5004F0A
:1038E00014D085D9B3F5404F9BE7FFF73DF890B969
:1038F000002098E7FFF748F8F9E7FEF769FF7EE751
:10390000B0F5004F07D04FF400407AE7B0F5004F14
:1039100016487FF476AF62684FF6EF71530803EBF9
:103920004003B3FBF2F39AB2A2F1100088423FF6D3
:1039300079AF23F00F03C2F3420221689BB2134315
:10394000CB60D5E7F369FFEF00100140003802407B
:103950000044004000480040004C0040005000403F
:103960000014014000780040007C00400024F40076
:10397000436ADA0710B506D50168846A4A6822F4FA
:10398000003222434A609C0706D50168C46A4A682F
:1039900022F4803222434A60590706D50168046B3D
:1039A0004A6822F4802222434A601A0706D5016839
:1039B000446B4A6822F4004222434A60DC0606D582
:1039C0000168846B8A6822F4805222438A609906D7
:1039D00006D50168C46B8A6822F4005222438A60CB
:1039E0005A0610D50168046C4A68B4F5801F22F4A9
:1039F000801242EA04024A6005D14A68446C22F40B
:103A0000C00222434A601B0606D50268816C5368D7
:103A100023F400230B43536010BD2DE9F843DDF878
:103A2000209005460F46164698462A68D36937EA1D
:103A300003030CBF01230023B34201D000201BE08D
:103A4000B9F1FF3FF2D0FDF741F8A0EB08002C6878
:103A50004845236802D8B9F1000F0FD123F4D07381
:103A60002360A36823F00103A3602023AB67EB6707
:103A70000023032085F87430BDE8F8835A07D4D5B5
:103A8000E3691B05D1D54FF400632362236823F457
:103A9000D0732360A36823F00103A3602023AB67E6
:103AA000EB67C5F88030E3E773B500260446C0F83D
:103AB0008060FDF70BF8236805461B681A0716D4CB
:103AC00023681B685B070AD56FF07E4300224FF422
:103AD0008001204600932B46FFF79FFF98B92023D3
:103AE0000020A36784F87400E36720660CE06FF0A1
:103AF0007E4332464FF40011009303462046FFF701
:103B00008CFF0028DCD0032002B070BD10B5044645
:103B100040B3836F1BB980F87430FFF727FE22682B
:103B200024232046A367136823F001031360FFF7E3
:103B30001FFE012816D0636A13B12046FFF718FF55
:103B4000236820465A6822F490425A609A6822F00C
:103B50002A029A601A6842F00102BDE810401A6019
:103B6000FFF7A2BF012010BD0368012200211B69DD
:103B70001847036800221B69114618476FF01500AB
:103B8000704780F834130020704780F850120020EE
:103B9000704790F83403704790F850027047002047
:103BA0007047012070476FF01C0070470A4B10B53A
:103BB000036048330446C0F8E430D0F8380310B14D
:103BC00003685B68984704F5407002F03BFD2046AF
:103BD00000F094FC204610BD2C9D2000A0F1E400D4
:103BE000FFF7E4BF10B50446FFF7E0FF4FF44F7155
:103BF000204602F074FC204610BDA0F1E400FFF75F
:103C0000F1BF10B40168034682685B68541001EB91
:103C10006200D20748BF0A595DF8044B48BFD35829
:103C20001847012070476FF01C0070470020704754
:103C3000D0F8380308B520B100F0D7FA003818BF23
:103C4000012008BD30B587B00025044602ABCDE9A0
:103C500000550ECB00F00CFC84F8365307B030BD95
:103C600030B5012387B000250446CDE9005302ABEF
:103C70000ECB00F0FDFB84F8355307B030BD10B516
:103C8000044601F051FFD4E940239A420ABF94F858
:103C90000841002484F0010401F05CFF204610BDBF
:103CA00038B5044600F5407504F5FA74284602F06C
:103CB000CAFC2046FFF7E3FF20B1284602F0C4FC0F
:103CC000002038BD284602F0BFFC012002F065FC50
:103CD000284602F0B8FCECE7A0F1E400FFF7E0BFF3
:103CE00038B50546E830FFF7CAFF80F001042846E2
:103CF000E4B2FFF79DFF18B144F40054204638BDEC
:103D000095F8FC32002BF9D144F01004F6E7A0F14D
:103D1000E400FFF7E5BF000038B504460D4601F0AA
:103D200003FFD4F800312A78E2540133B3F5807FE1
:103D300005D94FF4AF720C490C4801F02BFE08BFB7
:103D4000002394F80821C4F800312AB1C4F80431E2
:103D5000BDE8384001F0FEBED4F804219A4204BF09
:103D6000012384F80831F3E7649320007593200061
:103D700070B504460E4601F0D7FED4E940239A42BE
:103D800002D194F80851BDB1E35C3370D4F804312A
:103D90000133B3F5807F05D94FF4AF720849094864
:103DA00001F0F8FD4FF000024FF0010508BF134687
:103DB00084F80821C4F8043101F0CCFE284670BD17
:103DC000649320007593200010B586B004466846C1
:103DD000039180E80C0006A800E90C0010E9070038
:103DE000034B84E807002046E36006B010BD00BF27
:103DF000033C2000C36810B52BB94FF4FD72034992
:103E0000034801F0C7FDBDE810401847EA932000C1
:103E1000F593200084B070B5064605AC06F54975EB
:103E200084E80E0001F080FE94E80F0085E80F00A2
:103E3000D6F8303343B147F6FF713046FFF750FFF5
:103E400010B12846FFF7D6FFBDE8704004B001F07E
:103E500081BEA0F1E400FFF7DDBF08B5D0F8303334
:103E60001BB100F54970FFF7C5FF08BD73B500F140
:103E7000E80504462846FFF702FF064694F8F031AD
:103E800073B9204600F0D2FA50B1204600F068FB2A
:103E90000DF107018DF807002846FFF73DFFEDE71C
:103EA00094F836332BB194F8F03113B12046FFF774
:103EB000C9FE4EB12846FFF7E2FE28B9204602B0FF
:103EC000BDE87040FFF7C9BF02B070BD70B50446D1
:103ED00088B001F029FE94F8BC30EBB194F8363389
:103EE000D3B92046FFF7C2FF94F8F061A6B90D4B95
:103EF00004AD0C4A21462846CDE902363346FFF789
:103F000063FF079B01962046009395E80E0000F0A2
:103F1000AFFA012384F8363308B0BDE8704001F0F1
:103F200019BE00BF6D3E200038B5044600F03AFAD5
:103F30000F4B002504F540702360483384F8F0519E
:103F4000C4F8E43084F8FC52C4E97A55C4E9BD559C
:103F500002F077FB01232046C4F83053A4F8343331
:103F600084F83653C4F83853FFF7B0FF204638BD05
:103F70002C9D20002DE9F0470646894615469AB348
:103F800000F5407706F1E808384602F05CFB404651
:103F9000FFF775FE0446A0B9404609EB040AFFF797
:103FA0006EFE30B9013451464046FFF7E1FEA542AE
:103FB000F2D13046FFF78AFF384602F045FB204633
:103FC00007E096F8343338462BB902F03DFB6FF02A
:103FD0000A00BDE8F08702F037FB012002F0DDFAAD
:103FE000384602F030FBD2E71046F2E7A0F1E400D9
:103FF000FFF7C0BF70B500F5407604460D46304669
:1040000002F021FB2946204600F0BDFA2046FFF7CA
:104010005DFF304602F018FB002070BDA0F1E40007
:10402000FFF7E8BF73B5044690F8FC5200F5FA7646
:10403000204600F00CFA58B10DF107013046FFF7A9
:1040400097FE28B19DF80710204600F08CFAEFE7A4
:1040500094F835333BB104F5FA70FFF710FE10B158
:104060002046FFF7FDFD65B194F8FC324BB92046C0
:10407000FFF7DEFD28B9204602B0BDE87040FFF72B
:10408000ECBE02B070BDF8B505460C46164600F50C
:10409000FA773846FFF7F3FD20B1A719BC4205D1E6
:1040A0003046F8BD2846FFF7BDFFF2E714F8011BC4
:1040B000284600F058FAF1E770B5044688B001F0E0
:1040C00033FD94F8BD30FBB194F83533E3B92046A5
:1040D000FFF7A8FF04F5FA70FFF7D1FDA0B90D4B6B
:1040E00004AD0C4A21460126CDE90230034628469C
:1040F000FFF76AFE079B01962046009395E80E00A5
:1041000000F0B6F984F8356308B0BDE8704001F0FE
:1041100021BD00BF254020002DE9F04706460F468F
:104120001546002A43D001F0FCFC044630B12A4673
:1041300039463046BDE8F047FFF7A5BF06F54078A1
:1041400006F5FA79404602F07EFA96F8FC3273B929
:10415000A7EB040AA5420AEB040719D996F8FC322A
:10416000B3B9394648460134FFF7D6FDF2E796F871
:10417000343393B1404602F067FA012002F00DFAA1
:10418000404602F060FA96F8FC32002BF2D1DFE7ED
:104190003046FFF791FFA542D7D8404602F054FAC7
:1041A000002C14BF20466FF00A00BDE8F0871046CF
:1041B000FBE7A0F1E400FFF7AFBF70B500F5407674
:1041C00004460D46304602F03EFA2946204600F0ED
:1041D00025FA2046FFF770FF304602F035FA00203E
:1041E00070BDA0F1E400FFF7E8BF83681A68436878
:1041F0001A4214BF0120002070470000034601440A
:10420000002010B5074C994200D110BD13F8012BC6
:1042100080EA02600822400028BF6040013AFAD1DB
:10422000F1E700BFB71DC104B0F91410FDF7F6B8EF
:1042300038B504460D4601F077FC29462046FCF7C8
:10424000CFFFBDE8384001F085BC10B5044601F051
:104250006BFC2046FDF728F8044601F07BFC204665
:1042600010BD90F8203010B5044623B901F0D4FEFB
:10427000012384F8203010BD90F8203010B504469A
:1042800023B101F0DFFE002384F8203010BD10B50B
:10429000044601F049FC94F8213043B9E369204613
:1042A00098472046FFF7DDFF012384F82130BDE861
:1042B000104001F04FBC0000074A002310B5C26156
:1042C0000022044681828361038442628362FFF795
:1042D000DEFF204610BD00BF2942200010B5044675
:1042E00001F022FC94F8213043B12046FCF772FF24
:1042F0002046FFF7C1FF002384F82130BDE81040BD
:1043000001F028BC10B50446FFF7E8FF204610BDB9
:104310007047426810B48AB1D0E9033404F0010157
:1043200023B959B161105158CB5801E00029F9D196
:10433000816802EB64005DF8044B18475DF8044B9C
:104340007047000070B500F14C050446D0F8C41069
:10435000284600F02BFDD4F8D820A2B1D4F8C830FC
:104360001BB9D4F8CC30D8070DD5D4F8E010D4F868
:10437000DC304E1004EB6100C90744BFA159CB5893
:1043800094F8D0109847D4F8B8102846FDF778FA7A
:10439000224628460249BDE87040FCF71DB900BF1F
:1043A00075452000F8B51E4B002517464C220360CA
:1043B00004461C4B0E468560294643601A4B858493
:1043C000C36045634564A0F848500061C0E90555E5
:1043D000C0E90755104402F087FF40F20113C4F80A
:1043E000A4502046A4F8BC30C4F8CC5084F8D05077
:1043F000C4F8E050C4E92D57B388A4F8BE30B3899F
:10440000A4F8C0304FF6FF73C4E93165A4F8D23088
:10441000A4F8D430C4E93655FFF794FF2046F8BD20
:10442000C49D2000454320001343200038B50546B5
:10443000044655F84C3B1B6898472846FDF7D0F9D1
:104440002368054620465B689847284638BD38B53E
:104450000546044655F84C3B1B6898472846FDF72F
:10446000CFF92368054620465B689847284638BD43
:1044700084B02DE9F04709AE05469DF8347086E812
:104480000E0003683C011B68984795F8BC3003B1E7
:104490008FB195F8BD300BB1012F0CD02C4496E8AC
:1044A0000F00983484E80F002B682846BDE8F047D9
:1044B0005B6804B0184704F1980801F035FB0C9ACA
:1044C00005F14C09A844D8F80C3082B10BB901F0C1
:1044D000A3FD2C4496E80F00983484E80F000122D5
:1044E00039464846FCF784F801F034FBDCE70BB1B1
:1044F00001F0A8FD0022C8F80C20F1E770B586B0E5
:10450000114B0026044602AD0360CDE9006695E834
:104510000E00FFF7ADFF01232046CDE9006395E8CB
:104520000E00FFF7A5FF94F8BC3013B994F8BD3026
:104530001BB104F14C00FDF78DF8206A08B101F0C1
:1045400091F8204606B070BDC49D200010B5044609
:10455000FFF7D4FFE421204601F0C1FF204610BD43
:104560004C30FCF7CBB810B50C464C30FCF7FCF8DF
:10457000204610BD00EB0110983008B5C3680BB1A0
:10458000FFF738FC08BD036870B504461B680D468C
:10459000984794F8BC30AB4217D0E5B901F0C4FAA3
:1045A0002A46294604F14C00FCF722F8D4F8A4303E
:1045B0008BBB01F0CFFA84F8BC5035B994F8BD300C
:1045C0001BB904F14C00FDF745F8236820465B68F1
:1045D000BDE87040184794F8BD304BB9A2686368D5
:1045E000511004EB6200D20744BF6258D358984779
:1045F00001F09AFAD4F8A430002BDAD004F1980034
:10460000FFF7F8FB01F008FD0122002104F14C0046
:10461000FBF7EEFFCDE701F015FDCAE7036870B5C3
:1046200004461B680D46984794F8BD30AB4217D03E
:10463000E5B901F079FA2A46012104F14C00FBF7B3
:10464000D7FFD4F8B4308BBB01F084FA84F8BD50A6
:1046500035B994F8BC301BB904F14C00FCF7FAFFF3
:10466000236820465B68BDE87040184794F8BC306A
:104670004BB9A2686368511004EB6200D20744BFD3
:104680006258D358984701F04FFAD4F8B430002B51
:10469000DAD004F1A800FFF7ADFB01F0BDFC012268
:1046A00004F14C001146FBF7A3FFCDE701F0CAFC73
:1046B000CAE7D0E9021370B5D0E9082504465218BC
:1046C00045EB030300F092F8636B23B104F128007B
:1046D000BDE87040184770BD38B50446154600F077
:1046E0006FF8064B002220462360002384F83850E0
:1046F000C4E908230023636338BD00BFDC9D2000AC
:1047000013B5044601A800F0B5FF204600F078F884
:10471000636B23B194F838300BB101F093FC0023A4
:1047200001A8636300F0ACFF02B010BD70B5054690
:1047300014461E4600F064F8A869C5E9084600F072
:1047400019FB2218284646EB0103BDE8704000F033
:104750004DB884B073B5054607AC01A884E80E00D7
:1047600000F088FF6B6B23B995F838300BB101F07E
:1047700053FC05F1280694E80F0086E80F00DDE9F8
:104780000C232846FFF7D2FF01A800F079FF02B002
:10479000BDE8704004B0704710B5044600F096F8CC
:1047A000002201462046FFF797FF024B2046236078
:1047B00010BD00BFE89D200003681B68184700007B
:1047C00010B5084B04460022084623600023A1616F
:1047D0000549C4E902230023C4E9043300F058FA70
:1047E000204610BDF49D2000B947200007B500F118
:1047F00008010090806900F088FA03B05DF804FBBE
:1048000000F10801806900F09ABA0000034B10B56E
:1048100004460360FFF7F4FF204610BDF49D20001E
:10482000EFF3108372B6054A117831B9DB430449BE
:1048300003F001030B70012313707047900A0020EE
:10484000910A002008B5EFF31083DB4313F0010356
:1048500004D036220549064801F09CF8054A137039
:10486000054B1B7803B162B608BD00BF559420000C
:1048700071942000900A0020910A0020014B1878C2
:10488000704700BF900A0020F8B50F460446154651
:104890001E46FCF7E9F8013710D020685EB1A36826
:1048A000186001212046FCF703F929462046BDE89F
:1048B000F840FCF7F9B8E3680004F1E7F8BD1346E7
:1048C0000022FFF7E1BF0022FFF7F9BF0048704761
:1048D000F89D2000024B1B680BB102481847704737
:1048E00004030020F89D200007B5024608468A42CE
:1048F0000AD0531C08D0013005D0002304490548D4
:10490000009301F08DFA104603B05DF804FB00BF80
:104910008B94200030010180B1F900305A1C01D184
:1049200018467047834201D1486870470C31F3E75D
:10493000421C13B504460AD0FFF7EEFF431C06D114
:104940000023224603490448009301F069FA02B0AB
:1049500010BD00BF9C94200030010180B1F90030EF
:104960005A1C01D118467047834201D188687047AC
:104970000C31F3E7F8B5446894F832608EBB0368F5
:104980005B689847226A82422BD02369821A206290
:104990001A40A368A2FB03C194F93420CAB1606A2B
:1049A00010EB0C0541F10001002A1BDBC2F12000D5
:1049B000A2F1200325FA02FC01FA00F021FA03F328
:1049C000D1404CEA000C4CEA030C0CFA02F2AA1A91
:1049D0006262D4E90A3213EB0C0341EB0202C4E930
:1049E0000A32F8BDE768334628463A4603F034FEFB
:1049F000844607FB10506062EBE7824206D98A4288
:104A00000BD9884294BF002001207047884206D904
:104A10008A428CBF0020012070470120704700208F
:104A2000704700002DE9F04146680546336B23F0DE
:104A30007F4828F0FF08B8F1000F5CD1FFF79AFF1C
:104A40007368002B59D0D3E90003D6E90A128142DA
:104A50009A4104D32B68BDE8F0415B6918476C6844
:104A6000D4E90A12401A63EB020CE369D4E9057237
:104A7000824273EB0C031FD3E368A3FB000103FB2B
:104A80000C1194F93330A3B1A26802F1FF3C1CEB86
:104A9000000041F10001002B1BDBC3F1200CA3F14E
:104AA0002002D84001FA0CFC21FA02F240EA0C0084
:104AB0001043874228BF0746236A1F4423691F40CB
:104AC000336ABB4209D140F2C9121149114800F0C2
:104AD00061FF434603F0C0FDEBE72B6838461B69D6
:104AE00098472B685B6898473A460146306AFFF75B
:104AF00084FF0028AED1BDE8F0817369306A326965
:104B000018442B6810401B69BDE8F041184700BFEE
:104B100010952000229520004368F7B593F83020C7
:104B20000546002A40F0838093F83230002B7ED176
:104B300003681B6898472B68DB69984703682BB9A3
:104B40001A463C493C48009301F06AF91F463B4A2B
:104B50001446B7FBF2F204FB12722746002AF7D183
:104B600036491F226E680127B1FBF4F1B160013AAA
:104B700003D307FA02FC6145F9D186F83320B3FB71
:104B8000F4F2B2F1004F4FF01F03F26006D001249F
:104B9000013B03D304FA03F7BA42F9D186F8343063
:104BA0004068071F1C2F05D90023254925481A46B0
:104BB0000093C9E720284FF0070418BF012304FA27
:104BC00007F408BF4FF0FF334FF0000718BF8340D2
:104BD00074614FEAE47018BF03F1FF333361A4FB43
:104BE000014301FB0031531E47F1FF3CE0183B46F7
:104BF00041EB0C0103F030FD2B68C6E906015B6850
:104C0000C6E9007798476B683062002101220020D6
:104C10005F621A8683F83270C3E90A012846FFF7FB
:104C2000A9FE284603B0BDE8F040FFF7FBBE03B085
:104C3000F0BD00BF469520000E01048040420F00E9
:104C40005F95200005010480F3B4069C00274568A9
:104C50008C606C68C1E9002334B9CC607FB96960AD
:104C600002B0F0BCFFF7DEBE666801962668B2426D
:104C7000019E73EB0606F0D32746E468ECE7F96083
:104C8000D5E90A4194429941EAD202B0F0BC70479A
:104C900038B505460C46FFF73FFF00F045FF6B684F
:104CA0001C60BDE8384000F055BF70B5054600F007
:104CB0003BFFD5E90034DB68984794F832301BB1EC
:104CC000BDE8704000F046BF012384F831306368CE
:104CD000A3B12846FFF74EFE6368D4E90A62D3E920
:104CE000000186428A4109D36A68DB6852686360C2
:104CF0002368002BEBD090689847E8E7002328460C
:104D000084F83130FFF78EFEDAE72DE9F3410446EF
:104D10000D4617461E46DDF8208000F005FF2046B0
:104D2000FFF728FE3A46334629462046CDF8008054
:104D3000FFF78AFF02B0BDE8F04100F00BBF38B5C5
:104D400005460C4600F0F0FE6A685368A34209D19C
:104D5000DB6828465360FFF765FEBDE8384000F089
:104D6000F9BE1346002BF8D0DA68A242F9D1E26806
:104D7000DA60F2E738B50446FFF7CEFE00F0D4FE65
:104D80002046FFF7F7FD6368D3E90A4500F0E2FE2D
:104D90002046294638BD7047024B1B680BB10248BC
:104DA0001847704708030020249E2000B1F90C200A
:104DB000B1F90410FCF7A8BD102300F007B82023B8
:104DC00000F004B8302300F001B840239C46F0B452
:104DD00004AE7546E80801D3EFF309860E4F0FCEF7
:104DE0000FC70FBC0FC74046494652465B460FC728
:104DF0001DCE3100A60A00D304316E0900D248311D
:104E00001FC7EFF309806946EFF3148663C7604656
:104E1000014900F079F800BFF8010020F0B52C4EF0
:104E200085B000242B4F35462146013456F8042B1B
:104E3000384600F05DFE0D2CF6D1AB6C264C02938B
:104E40006B6C264801932B6C0093696BD5E90E239C
:104E500000F04EFE2168224800F04AFEE16AA26A94
:104E6000A36AA06AD2B2266BC3F30723E76B000CD8
:104E7000CDE9016700901B4800F03AFEA36A1E06C8
:104E800003D5616B184800F033FEA36A180403D5FC
:104E9000A16B164800F02CFEEB6C190712D51448D4
:104EA00000F026FE2B6DDA070FD5124800F020FE29
:104EB000EB6C5B074CBF1048104805B0BDE8F040F4
:104EC00000F016BE0E4800F013FE0E48EEE700BFDD
:104ED000F80100209B95200000ED00E0A99520003E
:104EE000F895200006962000559620006396200035
:104EF0007196200080962000B0962000BC9620007D
:104F0000A09620008D96200007B504460D461A484D
:104F1000012100F065FD68BB184800F0E9FD302C68
:104F200019D0402C1CD0202C1FD1154C154800F056
:104F3000DFFD154800F0DCFDFFF770FF134800F0BF
:104F4000D7FD0D4B00221A7000232A461049204637
:104F5000009300F065FF0F480F4C00F0C9FDE8E733
:104F60000E480F4C00F0C4FDE3E70E480E4C00F075
:104F7000BFFDDEE70024E7E79D0B0020C896200078
:104F80003E01FF80F19620001E9720002997200007
:104F900048972000009720003F01FF8009972000DC
:104FA0004001FF80149720003D01FF8070B5054649
:104FB0001446184613686FF000420E460499934257
:104FC00005D229B102F08EFD431C05D1206070BDD1
:104FD00015B1B34238BFE854236801332360F6E7C4
:104FE0002DE9F04F8DB09146182207469DF86830A4
:104FF00088460DEB020000219DF860A00293DDE9D8
:10500000164602F071F9029B002B0CBF20233023BF
:10501000BAF1010F049325D1002E54DA6442D3462D
:1050200066EB460606AB00250393AAF10203DBB24A
:105030000593059B012B49D8BAF1020F04F00F0329
:105040004FEA14140CBF364A364A44EA067436094D
:10505000D25C039B013503F8012B039354EA06034A
:10506000E7D10CE0AAF10403D3F1000B4BEB030BE7
:1050700054EA0603D6D1302301258DF81830BBF150
:10508000000F48D0029B3BB11B9B4A464146384625
:1050900000932D23FFF78AFF0135199B9D4205DA06
:1050A000199BAB421DDCBBF1000F0AD0029B3BB940
:1050B0001B9B4A464146384600932D23FFF776FF57
:1050C000013D06AC22E04FF0000BD1E7204631460F
:1050D0000A22002303F0C0FA303204460E46D2B250
:1050E000B7E71B9B4A46414638460093049BFFF7AF
:1050F0005DFF199B013B1993D2E71B9B013D4A467B
:10510000414600933846635DFFF750FF002DF4D110
:105110000DB0BDE8F08F199B9D42C1DBD1E700BF08
:105120008F9E20007F9E20002DE9F04F1C4695B0F9
:10513000002383460D4692461393C2B1994216DB73
:105140000CBF012301F1FF354FF000080D931AF851
:10515000083083B9139BBBF1000F08D00D9A32B908
:10516000AB428ABF0D9B0BF803200BF80530139858
:1051700015B0BDE8F08F252B40F0528208F10103F5
:105180001AF80320203AD2B20D2A07D842F60901B4
:1051900021FA02F2D20748BF08F102031AF80320ED
:1051A0002A2A1CD14FF0000901330434CDF81C9099
:1051B0001AF803100AEB03022E2940F0E58051781B
:1051C0002A2929D000260A275378501C303BD9B20F
:1051D000092940F2D580CAF1010313441FE0302AA7
:1051E00013D101331AF80320302AFAD00122534494
:1051F0004FF000090792194611F8012B303AD0B24E
:10520000092804D9A3EB0A03D2E70022EFE70A2317
:1052100003FB09290B46EEE7023354F8046B1AF836
:105220000320682A40F0B3800AEB03025278682A10
:1052300000F0BD801C22B0498A5C02F00F01CB183F
:105240001AF803700B93692F00F2EE80572F00F2CB
:10525000BF80A7F14603012B00F2EB80073424F056
:105260000704B4EC027B51EC170B8DED0E7B03F0C1
:105270000BFA0A910690099103F098F802460B4642
:10528000DDE90E0102F008FF0B460246CDE91023CE
:105290006FF000439E4200F02D81002E00F05581FA
:1052A000012200230C920A2208939E4200F32881D7
:1052B0000C98089903F07AF8DDE9102302F0BEFD9E
:1052C0000022074688460023DDE90E0103F0FCF8C2
:1052D0001090002800F0208143463A46002087497C
:1052E00002F0DAFE03F0D0F90C9B8846074698429C
:1052F000089B994108DB069B0027013B06930A9B0C
:1053000063F100030993B846731CA9EB03099DEDF3
:105310000E7B29EAE9798DED107B069B099A1343F0
:1053200040F0218100220023DDE9100103F0CCF8D8
:10533000002800F018811E9B00220593079BCDE9F1
:105340000393042302930023CDE9002313AA2946E3
:105350005846FFF745FE002E00F031811E9B13AA30
:105360002946584600932E23FFF720FE1E9B0593E7
:105370000123CDE903630023CDE9007802939DE08A
:1053800007FB063602461FE76FF0004647E76C2A28
:1053900006D10AEB030252786C2A0AD020224AE78F
:1053A0004C3AD2B22E2A7FF646AF002245E772224F
:1053B00043E7822241E7082B3BD8DFE813F01501D1
:1053C0003A003A0004013A006B003A003A006B00E0
:1053D000A7F15803112B2CD801A151F823F000BFDD
:1053E00095542000335420003354200033542000BF
:1053F0003354200033542000335420003354200011
:10540000335420003354200033542000AD55200085
:105410004F542000335420005D5220005D52200084
:10542000335420004F542000A7F17003D9B208294B
:10543000C1D91E9B13AA2946584600932523FFF77E
:10544000B5FD0B9B252F18BF43460B93B7E0822A6F
:1054500010D1073424F007031C465B6854F8082B6E
:105460001E99009205910799CDE9039101210291BE
:10547000019323E0112A54F8043B07D0722A13BF8A
:105480001A465AB243F3C013D317E9E71AB243F3EB
:10549000C033E5E7822A17D1073424F00702144607
:1054A000526854F8083B1E99752F05910799CDE96C
:1054B000039119D100210291CDE9003213AA2946A6
:1054C0005846FFF78DFD7AE0512A54F8043B09D085
:1054D000722A03D0112A03D00022E4E7DBB2FBE7F3
:1054E0009BB2F9E7DA17DEE7582F01D10321E2E793
:1054F0000221E0E70626D3E6509E20000000E03FB0
:105500000C9801330899A0FB027051430890089849
:105510000C9701440891C8E6464B002238464146A4
:1055200002F0BCFD03F0B0F80C9B88460746984299
:10553000089B9941FFF6E8AE069B109F0133069346
:105540000A9B43F100030993DDE60022394B02F088
:10555000D9FFA0B1069B013306930A9B43F10003D8
:1055600009933746B0461E9B0593079BCDE90393ED
:1055700001230293069B0093099B0193E6E6002218
:105580002D4BDDE9100102F09FFF60B1069B5F1E0D
:105590000A9B63F1000857EA08033FF4CCAE069774
:1055A000CDF82480DDE73746B046B6E61E9A294698
:1055B00014F8043B5846009213AAFFF7F7FC0B9B24
:1055C00003F10108C3E554F8047B3E443B78002B0B
:1055D000F5D0B742F3D01E9A2946584601370092BB
:1055E00013AAFFF7E3FCF1E71E9B13AA54F8046B20
:1055F0002946584600933023FFF7D8FC1E9B13AA78
:105600002946009358467823FFF7D0FC1E9B00964E
:1056100005930023CDE9033303230293F31727E710
:105620001E9A29465846009213AAFFF7BFFCCDF8F0
:105630002C80C4E70000E03F0000E0BF13B5002469
:105640000094FFF771FD02B010BD07B513460A467E
:105650006FF0004100900020FFF766FD03B05DF899
:1056600004FB0000024B1B6803B11847704700BFE2
:10567000080B002010B5044600F056FA204610BD75
:1056800010B5044600F066FA204610BD03680122FA
:1056900000211B6970B504469847051E0DDB236881
:1056A0000222002120461B699847064623682946A6
:1056B000354600221B6920469847284670BD704732
:1056C000704700008E220249024808B500F062F9D6
:1056D000B1972000BE97200010B504460846FFF79A
:1056E00049FBC4E90001204610BD000010B5044686
:1056F000FFF766F80A4B2046A16940F8203BFFF708
:10570000EBFF2046D4E90823C4E90A230022002342
:10571000C4E90C230023C4E90E3384F8403010BDE3
:10572000A89E200038B590F83F5004460DB1FFF711
:10573000C9FFFFF765F894F84030A5872BB184F8CE
:105740004050BDE8384000F07DBC38BD10B504467F
:1057500001F1300000F04DF9C4E90001204610BD10
:1057600010B504468969FFF7B7FF204610BDD0E9A0
:105770000C32013342F10002C0E90C32D0E90A32A6
:1057800013F57A7342F10002C0E90A327047D0E99A
:105790000A2312F57A7243F10003FFF727B80000DD
:1057A00090F83C3010B504464BB1002380F83C30F3
:1057B00090F83E3013B9012380F83D3010BD90F8C9
:1057C0003F30002BFAD0836B4FF08062013383634C
:1057D000034B5A60FFF7CBFF2046FFF7D8FFEDE7FA
:1057E00000ED00E037B50D46044689696846FFF7CD
:1057F00073FF00980199D5E90A32C01A61EB0201E2
:10580000B0F57A7F71F1000306D200220023C4E9CB
:105810000023204603B030BDB0F5FA6F71F10003EC
:1058200001D20122F2E700294FF47A724FF000030F
:10583000D8BF002102F010FFC4E90001E9E7000031
:1058400091F83F30F7B505460C4613B991F83C6026
:1058500026B1E5221149124800F09CF86846FFF78E
:10586000C1FF4FF47A71DDE90030A663A3FB01723A
:1058700001FB0022D4E90A16C91942EB0602C4E969
:105880000A12D4E90C125B1842EB00022846C4E964
:105890000C32C5E9003203B0F0BD00BFB197200063
:1058A000C89720002DE9F743994690F83F30044609
:1058B0001746154623B158223249334800F06AF89A
:1058C00090F83C3063B901466846FFF7B9FF009B8A
:1058D000BB42019B73EB090305D3012384F83D30E0
:1058E00003B0BDE8F08321466846FFF72FFF009B19
:1058F000B7EB03084FF47A73019FA5FB035669EBDE
:10590000070703FB0966D4E90832ED184FF00103DD
:1059100046EB020694F84020A38742B9A2691268B8
:1059200092F820203ABB84F8403000F075FBB8F1C3
:10593000050F94F8403077F100070DD2002384F86A
:105940003E3094F8403023B9012384F8403000F011
:1059500063FB2A46334608E0002BEFD10123B5F55F
:105960007A6284F83E3066F10003204603B0BDE859
:10597000F043FEF73BBFB8F1050F77F10007DDD329
:10598000ECE700BFB1972000BE97200001F0FCBDFE
:1059900001F07ABE07B50B4600920146002201488D
:1059A00000F03EFA4401FF8003460122D3E84F0F86
:1059B000C3E8412FC0B20029F8D17047D0E85F3F5B
:1059C0005B18C0E8523F002AF8D198B27047D0E87F
:1059D0005F3F5B1AC0E8523F002AF8D198B2704787
:1059E0000346D3E84F0FC3E8421FC0B2002AF8D1E4
:1059F000704738B5044600F097F8D4E9004500F048
:105A0000A9F82046294638BD00B589B0144E154D79
:105A100000F08AF8102101A8FEF755FF0424039B2B
:105A20003046019A1A6000F0BDFD019B049A304691
:105A30001B04136000F0B6FD013CF0D10424039B6D
:105A40002846019A1A6000F0ADFD019B049A284691
:105A50001B04136000F0A6FD013CF0D1DEE700BF9F
:105A6000F0490200801A060073B500220146044680
:105A7000022000F0E7FB0D2600F056F80022254634
:105A800014F8013B23B902B0BDE8704000F062B8E1
:105A90000A2B09D10D2A07D001220DF1070102209E
:105AA0008DF8076000F0CEFB01222946022000F0AD
:105AB000C9FB14F8012CE2E700B5A3B002460B467F
:105AC000842101A8FFF7BAFD832806D9074B1A687D
:105AD0001B79CDF883208DF88730002802DD01A8DE
